:020000022000DC
:107000000000042011720200397202003B7202007B
:107010003D7202003F720200417202000000000057
:1070200000000000000000000000000043720200A9
:10703000457202000000000047720200497202001F
:107040004B7202004B7202004B7202004B72020044
:107050004B7202004B7202004B7202004B72020034
:107060004B7202004B7202004B7202004B72020024
:107070004B7202004B7202004B7202004B72020014
:107080004B7202004B7202004B7202004B72020004
:107090004B7202004B7202004B7202004B720200F4
:1070A0004B7202004B7202004B7202004B720200E4
:1070B0004B7202004B720200000000000000000052
:1070C0004B7202004B7202004B7202004B720200C4
:1070D0004B7202004B7202004B7202004B720200B4
:1070E0004B7202004B7202004B7202000000000063
:1070F000000000004B720200000000004B72020012
:10710000000000000000000000000000000000007F
:10711000000000000000000000000000000000006F
:10712000000000000000000000000000000000005F
:10713000000000000000000000000000000000004F
:10714000000000000000000000000000000000003F
:10715000000000000000000000000000000000002F
:10716000000000000000000000000000000000001F
:10717000000000000000000000000000000000000F
:1071800000000000000000000000000000000000FF
:1071900000000000000000000000000000000000EF
:1071A00000000000000000000000000000000000DF
:1071B00000000000000000000000000000000000CF
:1071C00000000000000000000000000000000000BF
:1071D00000000000000000000000000000000000AF
:1071E000000000000000000000000000000000009F
:1071F000000000000000000000000000000000008F
:10720000EFF314800421084380F31488F74600004C
:107210000649074A074B9B1A03DD043BC858D05068
:10722000FBDCFFF7EDFF00F075F80000387302009B
:107230007859002000800100FEE7FEE7FEE7FEE748
:10724000FEE7FEE7FEE7FEE7FEE7FEE7034B1B690E
:10725000002BFCD14FF0FF30704700BF7859002061
:10726000254B1B78002B43D130B4244B1968244B99
:107270001960244B1A68244B1A60521A0B1D2348BC
:1072800003600C2443F8044C0D2043F8040C4868B8
:1072900020F0030008381C50486820F0030008382C
:1072A0001C5844F001041C50143A22F003024868B0
:1072B00020F0030C03EB0C0444F8042C53F80C00EE
:1072C00020F003000838225053F80C2022F003026B
:1072D0002244002042F8040C012542F8045C4C6072
:1072E00043F80C000A4B1870034B1D7030BC7047FC
:1072F0004FF0FF30704700BF8D590020A05900208B
:1073000098590020A09900209459002090590020FD
:107310008C59002008B5FFF7A3FF00B9FEE7002352
:107320001A4619460148FFF791FFF7E7307302004C
:05733000746573740098
:107338000000000000000000000000000000000045
:0873480000000000000000003D
:040000032000731551
:00000001FF
