:020000022000DC
:107000000348044B834202D0034B03B11847704737
:10701000E0590020E0590020000000000548064B20
:107020001B1AD90F01EBA301491002D0034B03B186
:1070300018477047E0590020E05900200000000088
:1070400010B5064C237843B9FFF7DAFF044B13B1B0
:107050000448AFF300800123237010BDE0590020E5
:1070600000000000AC71020008B5054B1BB10549DA
:107070000548AFF30080BDE80840FFF7CFBF00BF71
:1070800000000000E4590020AC710200A3F5803A32
:10709000704700BF174B002B08BF134B9D46FFF7EF
:1070A000F5FF00218B460F461348144A121A00F0D0
:1070B00063F80E4B002B00D098470D4B002B00D0EF
:1070C00098470020002104000D000D48002802D040
:1070D0000C48AFF3008000F02BF82000290000F0EE
:1070E00053F800F011F800BF000008000000000095
:1070F000000000000000042000800100008001006A
:10710000000000000000000008B5074B044613B162
:107110000021AFF30080054B1868836A03B19847DC
:10712000204600F033F800BF00000000A871020004
:1071300070B50D4D0D4C641BA4100026A64209D15C
:107140000B4D0C4C00F024F8641BA4100026A64242
:1071500005D170BD55F8043B98470136EEE755F868
:10716000043B98470136F2E7D8590020D85900204F
:10717000D8590020DC59002002440346934200D134
:10718000704703F8011BF9E700207047FEE700BFD6
:10719000F8B500BFF8BC08BC9E467047F8B500BF04
:1071A000F8BC08BC9E4670477859002000000000DB
:0871B000DCFEFF7F010000007E
:1071B80000000000000000000000000000000000C7
:1071C80000000000000000000000000000000000B7
:1071D80000000000000000000000000000000000A7
:1071E8000000000000000000000000000000000097
:1071F8000000000000000000000000000000000087
:107208000000000000000000000000000000000076
:087218006970020041700200E0
:0400000320007095D4
:00000001FF
