:020000022000DC
:107000000000042089730200B1730200B373020010
:10701000B5730200B7730200B973020000000000EC
:10702000000000000000000000000000BB73020030
:10703000BD73020000000000BF730200C1730200B4
:10704000C3730200C3730200C3730200C373020060
:10705000C3730200C3730200C3730200C373020050
:10706000C3730200C3730200C3730200C373020040
:10707000C3730200C3730200C3730200C373020030
:10708000C3730200C3730200C3730200C373020020
:10709000C3730200C3730200C3730200C373020010
:1070A000C3730200C3730200C3730200C373020000
:1070B000C3730200C3730200000000000000000060
:1070C000C3730200C3730200C3730200C3730200E0
:1070D000C3730200C3730200C3730200C3730200D0
:1070E000C3730200C3730200C373020000000000F8
:1070F00000000000C373020000000000C373020020
:10710000000000000000000000000000000000007F
:10711000000000000000000000000000000000006F
:10712000000000000000000000000000000000005F
:10713000000000000000000000000000000000004F
:10714000000000000000000000000000000000003F
:10715000000000000000000000000000000000002F
:10716000000000000000000000000000000000001F
:10717000000000000000000000000000000000000F
:1071800000000000000000000000000000000000FF
:1071900000000000000000000000000000000000EF
:1071A00000000000000000000000000000000000DF
:1071B00000000000000000000000000000000000CF
:1071C00000000000000000000000000000000000BF
:1071D00000000000000000000000000000000000AF
:1071E000000000000000000000000000000000009F
:1071F000000000000000000000000000000000008F
:107200000348044B834202D0034B03B11847704735
:10721000E0590020E0590020000000000548064B1E
:107220001B1AD90F01EBA301491002D0034B03B184
:1072300018477047E0590020E05900200000000086
:1072400010B5064C237843B9FFF7DAFF044B13B1AE
:107250000448AFF300800123237010BDE0590020E3
:10726000000000004474020008B5054B1BB105493D
:107270000548AFF30080BDE80840FFF7CFBF00BF6F
:1072800000000000E459002044740200A3F5803A95
:10729000704700BF174B002B08BF134B9D46FFF7ED
:1072A000F5FF00218B460F461348144A121A00F0CE
:1072B00063F80E4B002B00D098470D4B002B00D0ED
:1072C00098470020002104000D000D48002802D03E
:1072D0000C48AFF3008000F02BF82000290000F0EC
:1072E0009FF800F011F800BF000008000000000047
:1072F0000000000000000420008001000080010068
:10730000000000000000000008B5074B044613B160
:107310000021AFF30080054B1868836A03B19847DA
:10732000204600F07FF800BF00000000407402001B
:1073300070B50D4D0D4C641BA4100026A64209D15A
:107340000B4D0C4C00F070F8641BA4100026A642F4
:1073500005D170BD55F8043B98470136EEE755F866
:10736000043B98470136F2E7D8590020D85900204D
:10737000D8590020DC59002002440346934200D132
:10738000704703F8011BF9E70649074A074B9B1AA8
:1073900003DD043BC858D050FBDC00F015F8FFF7C4
:1073A00079FF00005074020078590020008001002D
:1073B000FEE7FEE7FEE7FEE7FEE7FEE7FEE7FEE7A5
:1073C000FEE7FEE7FEE7000008B5144BD3F84025C2
:1073D00042F00102C3F84025D3F8402522F4807220
:1073E000C3F840254FF08042136843F00103136057
:1073F00000231B6813F0010FFAD04FF08043D3F83D
:107400000C3413F0010F07D04FF08043D3F80C3445
:1074100013F4803F00D008BDFFF7D4FF00E0014027
:1074200000207047FEE700BFF8B500BFF8BC08BCFD
:107430009E467047F8B500BFF8BC08BC9E46704732
:08744000785900200000000053
:0874480044FEFF7F010000007B
:10745000000000000000000000000000000000002C
:10746000000000000000000000000000000000001C
:10747000000000000000000000000000000000000C
:1074800000000000000000000000000000000000FC
:1074900000000000000000000000000000000000EC
:1074A00000000000000000000000000000000000DC
:0874B000697202004172020042
:0400000320007295D2
:00000001FF
