:020000022000DC
:107000000000042011720200397202003B7202007B
:107010003D7202003F720200417202000000000057
:1070200000000000000000000000000043720200A9
:10703000457202000000000047720200497202001F
:107040004B7202004B7202004B7202004B72020044
:107050004B7202004B7202004B7202004B72020034
:107060004B7202004B7202004B7202004B72020024
:107070004B7202004B7202004B7202004B72020014
:107080004B7202004B7202004B7202004B72020004
:107090004B7202004B7202004B7202004B720200F4
:1070A0004B7202004B7202004B7202004B720200E4
:1070B0004B7202004B720200000000000000000052
:1070C0004B7202004B7202004B7202004B720200C4
:1070D0004B7202004B7202004B7202004B720200B4
:1070E0004B7202004B7202004B7202000000000063
:1070F000000000004B720200000000004B72020012
:10710000000000000000000000000000000000007F
:10711000000000000000000000000000000000006F
:10712000000000000000000000000000000000005F
:10713000000000000000000000000000000000004F
:10714000000000000000000000000000000000003F
:10715000000000000000000000000000000000002F
:10716000000000000000000000000000000000001F
:10717000000000000000000000000000000000000F
:1071800000000000000000000000000000000000FF
:1071900000000000000000000000000000000000EF
:1071A00000000000000000000000000000000000DF
:1071B00000000000000000000000000000000000CF
:1071C00000000000000000000000000000000000BF
:1071D00000000000000000000000000000000000AF
:1071E000000000000000000000000000000000009F
:1071F000000000000000000000000000000000008F
:10720000EFF314800421084380F31488F74600004C
:107210000649074A074B9B1A03DD043BC858D05068
:10722000FBDCFFF7EDFF00F09DF800009873020013
:107230007859002000800100FEE7FEE7FEE7FEE748
:10724000FEE7FEE7FEE7FEE7FEE7FEE710B4044CCC
:1072500020606160A260E3605DF8044B704700BF8E
:1072600078590020EFF3108040F0010080F310887F
:10727000F746EFF3108000F0000080F31088F74627
:10728000EFF31180F74680F31188F746EFF3138090
:10729000F7464FF0010080F31388F7464FF00000E7
:1072A00080F31388F7460000274B1B78002B48D14A
:1072B00030B5264B1C68264B1C60264B1A68264BA3
:1072C0001A60121B231D25490B60102043F8040C83
:1072D000112143F8041C616821F00301083958505A
:1072E000616821F003010839585840F001005850F6
:1072F000283A22F00302616821F0030C03EB0C0131
:1073000041F8042C53F80C0020F0030008380A5010
:1073100053F80C2022F0030E01EB0E02002042F87D
:10732000040C012542F8045C6160A06043F80C2065
:107330004B6041F80E005160094B1870024B1D70F4
:1073400030BD4FF0FF30704791590020A059002008
:1073500098590020A0990020945900208C590020B1
:107360009059002008B5FFF79FFF28B90020FFF7CC
:107370008AFFFFF77EFFFEE7014600231A46024818
:10738000FFF764FFF2E700BF8C7302006B696E6960
:07739000745F686561700085
:1073980000000000000000000000000000000000E5
:1073A80000000000000000000000000000000000D5
:040000032000736501
:00000001FF
